:020000040800F2
:10000000101700200D020008610600080D06000808
:100010005D060008E90400082B0E0008000000003F
:100020000000000000000000000000004D08000873
:10003000ED04000800000000F50600086109000852
:1000400027020008270200082702000827020008EC
:1000500027020008270200082702000827020008DC
:1000600027020008270200082702000827020008CC
:1000700027020008270200082702000827020008BC
:1000800027020008270200082702000827020008AC
:10009000270200082702000827020008270200089C
:1000A000270200082702000827020008270200088C
:1000B00027020008C50900082702000827020008D7
:1000C000270200082702000827020008270200086C
:1000D000270200084D0B000827020008270200082D
:1000E000270200082702000827020008270200084C
:1000F000270200082702000827020008270200083C
:10010000270200082702000827020008270200082B
:10011000270200082702000827020008270200081B
:10012000270200082702000827020008270200080B
:1001300000F002F800F05AF80AA090E8000C82449F
:100140008344AAF10107DA4501D100F04FF8AFF27C
:10015000090EBAE80F0013F0010F18BFFB1A43F0A5
:1001600001031847440F0000640F00000A444FF0D9
:10017000000C10F8013B13F0070408BF10F8014B06
:100180001D1108BF10F8015B641E05D010F8016B4B
:10019000641E01F8016BF9D113F0080F1EBF10F8AF
:1001A000014BAD1C0C1B09D16D1E58BF01F801CBD2
:1001B000FAD505E014F8016B01F8016B6D1EF9D555
:1001C0009142D6D37047000000230024002500266A
:1001D000103A28BF78C1FBD8520728BF30C148BFAA
:1001E0000B6070471FB51FBD10B510BD00F02EF994
:1001F0001146FFF7F7FF00F065FE00F04CF903B47D
:10020000FFF7F2FF03BC00F012FE00000948804730
:1002100009480047FEE7FEE7FEE7FEE7FEE7FEE7E8
:10022000FEE7FEE7FEE7FEE704480549054A064B00
:100230007047000065090008310100081011002016
:10024000101700201013002010130020704740EA00
:100250000103024630B59B0710D14FF0013400E096
:1002600008C208C91D1B9D4315EAC41FF8D013F02E
:10027000FF0102F8011B0DD01B0AF8E711F8013B42
:10028000002B02F8013B05D011F8013B002B02F8CE
:10029000013BF3D130BD10B5431C02E010F8011B47
:1002A00071B18107FAD14FF0013202C88C1A8C4328
:1002B00014EAC211F9D0C01A0A0603D0C01E10BD3C
:1002C000C01A10BD0A0401D0801E10BD0902FCD066
:1002D000401E10BD032A40F2308010F0030C00F0E5
:1002E000158011F8013BBCF1020F624498BF11F870
:1002F00001CB00F8013B38BF11F8013BA2F1040229
:1003000098BF00F801CB38BF00F8013B11F00303A0
:1003100000F06A80083AC0F0088051F8043B083ABF
:1003200051F804CBA0E80810F5E7121D5CBF51F8A6
:10033000043B40F8043BAFF30080D20724BF11F820
:10034000013B11F801CB48BF11F8012B24BF00F885
:10035000013B00F801CB48BF00F8012B70470000BB
:100360004FF0013C50F8042B51F8043B9A4221D144
:10037000A2EB0C03934313EACC1317D150F8042BD0
:1003800051F8043B9A4215D1A2EB0C03934313EAB4
:10039000CC130BD150F8042B51F8043B9A4209D1ED
:1003A000A2EB0C03934313EACC13DBD04FF0000015
:1003B000704700BFD01A01BAB1FA81F101F01801FB
:1003C00022FA01F0CB40C1F12001DBB2C0B2C01A69
:1003D0002CFA01F3D11A914311EAC311E6D1704707
:1003E000704770477047704710B5203AC0F00B80D7
:1003F000B1E81850203AA0E81850B1E81850A0E829
:100400001850BFF4F5AF5FEA027C24BFB1E8185082
:10041000A0E8185044BF18C918C0BDE810405FEAF2
:10042000827C24BF51F8043B40F8043B08BF70476E
:10043000D20728BF31F8023B48BF11F8012B28BF73
:1004400020F8023B48BF00F8012B7047754600F0CA
:100450002BF8AE4605006946534620F00700854656
:1004600018B020B5FFF7E0FEBDE820404FF00006D1
:100470004FF000074FF000084FF0000B21F007018C
:10048000AC46ACE8C009ACE8C009ACE8C009ACE8CF
:10049000C0098D46704710B50446AFF30080204672
:1004A000BDE81040FFF7ABBE00487047B010002019
:1004B00008B50121082000F03FF94FF48070ADF835
:1004C000000010208DF8030003208DF8020069461B
:1004D000044800F00CF84FF48071024800F092F8E4
:1004E00008BD0000000C014000BFFEE770472DE989
:1004F000F0410246002500260020002300240027AA
:1005000091F803C00CF00F0591F803C00CF0100C2B
:10051000BCF1000F03D091F802C04CEA050591F838
:1005200000C0BCF1000F31D0146800202BE04FF068
:10053000010C0CFA00F3B1F800C00CEA03069E426D
:1005400020D183004FF00F0C0CFA03F7BC4305FADF
:1005500003FC4CEA040491F803C0BCF1280F06D157
:100560004FF0010C0CFA00FCC2F814C00AE091F83C
:1005700003C0BCF1480F05D14FF0010C0CFA00FC90
:10058000C2F810C0401C0828D1D31460B1F800C0D4
:10059000BCF1FF0F34DD546800202EE000F1080CA0
:1005A0004FF0010808FA0CF3B1F800C00CEA03069A
:1005B0009E4221D183004FF00F0C0CFA03F7BC438D
:1005C00005FA03FC4CEA040491F803C0BCF1280FBF
:1005D00005D100F1080C08FA0CF8C2F8148091F863
:1005E00003C0BCF1480F07D100F1080C4FF001081F
:1005F00008FA0CF8C2F81080401C0828CED35460CA
:10060000BDE8F081416170470161704700BFFEE7BE
:1006100008B50121482000F08FF82020ADF8000037
:1006200010208DF8030003208DF802006946094868
:10063000FFF75DFF20210748FFF7E6FF2020ADF818
:10064000000069460448FFF752FF20210248FFF7E7
:10065000DBFF08BD000C01400018014000BFFEE7B1
:10066000704710B54FF4A06000F03AF810BD0000DC
:1006700070B5002100230F22C47804B3154C246800
:1006800004F4E064C4F5E064210AC1F10403CA4043
:10069000447804FA03F184781440214309010E4C94
:1006A0000678A155047804F01F050124AC400578B4
:1006B0006D11AD0005F1E025C5F8004109E00478B1
:1006C00004F01F050124AC40044D0678761145F86E
:1006D000264070BD0CED00E000E400E080E100E0A9
:1006E00002490143024A1160704700000000FA0508
:1006F0000CED00E07047000029B1064AD2690243C0
:10070000044BDA6104E0034AD2698243014BDA61A7
:10071000704700000010024029B1064A12690243E6
:10072000044B1A6104E0034A12698243014B1A61C7
:10073000704700000010024029B1064A9269024346
:10074000044B9A6104E0034A92698243014B9A6127
:10075000704700000010024029B1064AD2680243E7
:10076000044BDA6004E0034AD2688243014BDA604A
:10077000704700000010024030B500210022002424
:1007800000232D4D6D6805F00C0121B1042905D021
:10079000082923D105E0294D056022E0274D056099
:1007A0001FE0254D6D6805F47012234D6D6805F44A
:1007B0008034022505EB92421CB9214D554305605A
:1007C0000BE01D4D6D6805F400351DB11C4D554302
:1007D000056002E0194D5543056002E0174D0560C4
:1007E00000BF00BF144D6D6805F0F0010909154DFB
:1007F0006B5C0568DD4045600F4D6D6805F4E06198
:10080000090A104D6B5C4568DD4085600A4D6D68D6
:1008100005F46051C90A0B4D6B5C4568DD40C5604D
:10082000054D6D6805F44041890B074D6B5CC5684B
:10083000B5FBF3F5056130BD0010024000127A00EF
:1008400000093D00C80F0020D80F0020704710B5E8
:1008500000F002F810BD00000CB5002001900090DF
:100860003348006840F480303149086000BF3048A8
:10087000006800F4003000900198401C019000983E
:1008800018B90198B0F5A06FF1D12948006800F4BB
:10089000003010B10120009001E00020009000988D
:1008A000012843D12348006840F010002149086026
:1008B0000846006820F0030008600846006840F021
:1008C000020008601A4840681949486008464068B4
:1008D00048600846406840F48060486008464068C8
:1008E00020F47C1048600846406840F4E8104860F6
:1008F0000846006840F08070086000BF0C4800683F
:1009000000F000700028F9D00948406820F003008A
:10091000074948600846406840F00200486000BF50
:100920000348406800F00C000828F9D10CBD000015
:100930000010024000200240042808D14FF0E021BE
:10094000096941F004014FF0E022116107E04FF026
:10095000E021096921F004014FF0E02211617047A4
:100960007047000010B51348006840F001001149BD
:10097000086008464068104908400E49486008462B
:1009800000680E4908400B4908600846006820F4DA
:10099000802008600846406820F4FE0048604FF45C
:1009A0001F008860FFF753FF4FF0006004490860A4
:1009B00010BD0000001002400000FFF8FFFFF6FE2F
:1009C00008ED00E010B50121084800F052F858B1D8
:1009D0000121064800F03EF80548006808B90120EA
:1009E00000E000200249086010BD00000004004043
:1009F000948121427FB505460C4601210220FFF774
:100A00007BFEADF80850ADF804400020ADF80A00B8
:100A1000ADF8060001A90E4800F046F80122114683
:100A20000B4800F037F81D208DF8000000208DF8ED
:100A3000010003208DF8020001208DF803006846B4
:100A4000FFF716FE0121024800F007F87FBD000005
:100A500000040040CA430282704721B1028842F07C
:100A60000102028004E002884FF6FE731A40028001
:100A7000704730B50246002000230024158A05EA9D
:100A80000103958905EA010413B10CB1012000E0CE
:100A9000002030BD1AB183890B43838102E0838932
:100AA0008B43838170470000002202881D4B9842CF
:100AB0000ED01D4B98420BD0B0F1804F08D01B4B8D
:100AC000984205D01A4B984202D01A4B984204D152
:100AD0004FF68F731A404B881A43174B984207D032
:100AE000164B984204D04FF6FF431A40CB881A4366
:100AF00002808B8883850B8803850A4B98420BD034
:100B0000094B984208D00E4B984205D00D4B9842A5
:100B100002D00D4B984201D10B7A038601238382C8
:100B200070470000002C01400034014000040040E8
:100B300000080040000C004000100040001400407D
:100B400000400140004401400048014010B540F21F
:100B500025511D4800F0A5F810B31B4800F05CF9C2
:100B6000C4B21A48008800F40040C8B91748008889
:100B700000F4804060B10A2C03D0002013490880A3
:100B800020E01248008840F400401049088019E035
:100B90000D2C06D10D48008840F480400B49088098
:100BA00010E00A480088C0F30D0009490C540748BA
:100BB0000088401C0549088008460088C72801DDD8
:100BC0000020088010BD000000380140E40F002024
:100BD000E80F002021B1828942F40052828104E0B2
:100BE00082894DF6FF731A408281704710B5044622
:100BF0002048844209D101218803FFF7ADFD00217F
:100C00004FF48040FFF7A8FD32E01B48844209D131
:100C100001214804FFF780FD00214FF40030FFF769
:100C20007BFD25E01548844209D101218804FFF7A6
:100C300073FD00214FF48020FFF76EFD18E010488F
:100C4000844209D10121C804FFF766FD00214FF459
:100C50000020FFF761FD0BE00A48844208D1012122
:100C60000805FFF759FD00214FF48010FFF754FDF0
:100C700010BD000000380140004400400048004022
:100C8000004C00400050004002460020B1F5007FBB
:100C900000D100BF13880B400BB1012000E0002001
:100CA000704770B50246002400230025002040F65E
:100CB0006A16B14200D100BFC1F3421501F01F0313
:100CC000012606FA03F3012D02D19689334006E08E
:100CD000022D02D1168A334001E0968A33400C126D
:100CE000012606FA04F41688344013B10CB1012031
:100CF00000E0002070BDF0B503460024002600256A
:100D0000002040F66A17B94200D100BF1846C1F36F
:100D1000421401F01F06012707FA06F5012C01D144
:100D20000C3004E0022C01D1103000E014301AB174
:100D300007682F43076002E00768AF430760F0BD14
:100D40002DE9F04786B005460E460024A24600BFB6
:100D5000A1460027B08900B100BF2F462C8A4CF66F
:100D6000FF700440F08804432C82AC894EF6F310E7
:100D70000440B08831890843718908430443AC8139
:100D8000AC8A4FF6FF400440B0890443AC8201A80E
:100D9000FFF7F2FC1F48874202D1DDF810A001E006
:100DA000DDF80CA0A88900F4004040B10AEBCA00AD
:100DB00000EB0A1031684900B0FBF1F807E00AEBDC
:100DC000CA0000EB0A1031688900B0FBF1F864201A
:100DD000B8FBF0F004012009642101FB1089A88907
:100DE00000F4004040B1322000EBC900B0FBF1F04C
:100DF00000F00700044308E0322000EB09106421F2
:100E0000B0FBF1F000F00F0004432C8106B0BDE808
:100E1000F08700000038014001468888C0F30800D0
:100E20007047C1F308028280704700BFFEE70146A9
:100E300000BF704710B56FF00400FFF77DFD0A4852
:100E400000680A49B0FBF1F00949087008460078CB
:100E500000EB4001C1EBC0104FF6FF7101EAC0008A
:100E60000449088010BD0000B40F002000127A0071
:100E7000DC0F0020DE0F00200146114A12884A4391
:100E80004FF0E0235A6100229A611A46126942F03B
:100E900001021A6100BF4FF0E022106900F0010268
:100EA0001AB100F48032002AF5D04FF0E022126926
:100EB00022F001024FF0E0231A6100229A6170478C
:100EC000DE0F0020E6B0FFF7B5FFFFF7CAFB4FF4D7
:100ED000165000F095F8FFF79BFBFFF7E9FA41F693
:100EE0001F4140F6B730FFF785FD63E032480088C8
:100EF00000F4004000285DD02F4805782A462F498D
:100F000033A8FFF7E7F9002033A948552CA133A8EF
:100F1000FFF726FA78B901202D4908604FF47A705E
:100F2000FFF7AAFF00202B49C1F8A00133A96846AA
:100F3000FFF78DF925E00020274908604FF4FA708B
:100F4000FFF79AFF01202549C1F89401002415E01C
:100F5000C9206043224A811833A8FFF701FA38B943
:100F6000C92060431F4A81186846FFF770F907E0FF
:100F70001DA16846FFF76BF9601CC4B20A2CE7DBC1
:100F800000BF6846FFF787F9C6B200240DE01DF8E0
:100F900004101A48FFF745FF00BF40211748FFF72C
:100FA00073FE0128F9D1601CC4B2B442EFDB00200B
:100FB000014908809AE70000E40F0020E80F0020B4
:100FC00068656C6C6F20776F726C642100000000A4
:100FD000A08121420080214294012342000023424B
:100FE00000000020DA070020CEDEB7A8BBD8B4F09E
:100FF000B8C3CECACCE2A3A1000000000038014073
:1010000010B586B00446012144F20400FFF794FBBA
:101010002348FFF7EBFD4FF40070ADF814000320F8
:101020008DF8160018208DF8170005A91D48FFF748
:101030005EFA4FF48060ADF8140004208DF81700BC
:1010400005A91848FFF753FA25208DF80000032062
:101050008DF801008DF8020001208DF8030068462C
:10106000FFF706FB01940020ADF80800ADF80A0078
:10107000ADF80C00ADF810000C20ADF80E0001A981
:101080000748FFF75DFE012240F225510448FFF7B3
:1010900032FE01210248FFF79DFD06B010BD0000A1
:1010A0000038014000080140C8100008000000207E
:1010B000E80F00006C01000848120008E80F00204B
:1010C00028070000C801000805C5312B313D081B69
:1010D000AF576861742069732074686520636F7509
:1010E0007273652773206E616D653FC92A6FC81AD8
:1010F00079C40809AE20706172746E6572C361288C
:1011000008486F7720617265CA09B4C18128085701
:10111000686174206973C90808B572206D616A6FCF
:1011200072D00011B9C4E3B5C4BCD2CFE7CAC7C4FA
:10113000C4C0EFA3BF0811B7C4E3BECDB6C1D3DAB4
:10114000C4C4CBF9B4F3D1A7CB080BB7C4E3B5C47F
:10115000D0C7D7F9CAC7C369C9080DB9CFB2BBB6E2
:10116000C4C4D6D6CBAEB9FBCD080DB9D7EEBDFC05
:10117000D4DABFB4B5C4CAE9C72102C8320011B974
:10118000456D6265646465642053797374656D2E82
:10119000080BB85A6979756520446F6E67C45100B1
:1011A0000CBE4E6F74206261642E203A29001CAE82
:1011B0005472616E73706F72746174696F6E2045E2
:1011C0006E67696E656572696E672E0014B6C9CF69
:1011D000BAA3B3E7C3F7A3ACBFC9B0AED0A1B5BA49
:1011E0007E0011B9CDACBCC3B4F3D1A7BBC6B6C9A0
:1011F000C0EDB9A407C3BEDED0B7D7F9000FBBCE90
:10120000F7B9CFBACDB2DDDDAE205E5F5E0021AAB8
:10121000A1B6CEDEC9F9B8E6B0D7A1B7A3ACA1B6E6
:10122000B5C0C1D6B8F1C0D7B5C4BBADCFF1A1B779
:1012300084A24A04680901020304060708090C692C
:0812400010C5020406080000BD
:040000050800020DE0
:00000001FF
